:100000000C9423010C944B010C944B010C944B0168
:100010000C944B010C944B010C944B010C944B0130
:100020000C944B010C944B010C9408080C94D406CE
:100030000C944B010C944B010C944B010C944B0110
:100040000C944B010C944B010C944B010C944B0100
:100050000C944B010C944B010C944B010C94B80282
:100060000C944B010C944B010C944B010C944B01E0
:100070000C944B010C944B010C944B010C944B01D0
:100080000C944B010C944B010C944B010C944B01C0
:100090000C944B010C944B010C944B010C944B01B0
:1000A0000C944B010C944B010C944B010706050476
:1000B0000100080A0B0C0D09080B000202020100E6
:1000C00009040000010202000005240010010524BB
:1000D000010101042402060524060001070581032D
:1000E00010004009040100020A0000000705020296
:1000F0004000000705830240000000C18081C1125A
:10010000010002020000404123368000010102008C
:10011000011201000200000040412336800001016D
:1001200002000141726475696E6F204C4C430041BE
:10013000726475696E6F204C656F6E6172646F00DA
:100140000403090400000000000000002A2B28001E
:10015000000000000000000000000000000000009F
:10016000000000002C9EB4A0A1A2A434A6A7A5AEB6
:10017000362D3738271E1F20212223242526B3336E
:10018000B62EB7B89F8485868788898A8B8C8D8E9A
:100190008F909192939495969798999A9B9C9D2F66
:1001A0003130A3AD350405060708090A0B0C0D0E06
:1001B0000F101112131415161718191A1B1C1DAF46
:1001C000B1B0B500090402000103000000092101DB
:1001D00001000122650007058403400001050109B3
:1001E00002A1010901A100850105091901290315D1
:1001F00000250195037501810295017505810305AF
:10020000010930093109381581257F750895038169
:1002100006C0C005010906A1018502050719E029EC
:10022000E715002501750195088102950175088182
:1002300003950675081500256505071900296581D0
:1002400000C09304B30911241FBECFEFDAE0DEBF74
:10025000CDBF11E0A0E0B1E0E0E9F3E102C005901C
:100260000D92A634B107D9F721E0A6E4B1E001C0B0
:100270001D92AA3EB207E1F712E0C6E4D2E004C044
:100280002297FE010E94C209C234D107C9F70E9419
:100290005E010C94C6090C94000008950E9476013A
:1002A0000E943E02209A289A08950E94BC0164E6AA
:1002B00070E080E090E00E94250308950E944D03C5
:1002C0000E944D0184ED91E00E945E080E944E0163
:1002D0000E94550180E090E0892B29F00E940000E7
:1002E0000E945501FBCF0E945501FDCFCF93DF93B4
:1002F00040917701509178016091790170917A0174
:10030000E9E1F1E0C6E4D1E0A2E1B1E027E231E0C9
:10031000819191918532910519F48C91482B10C0EF
:100320008832910519F48C91582B0AC08B329105B3
:1003300019F48C91682B04C08E9711F48C91782B52
:1003400019921196E217F30719F74093770150932A
:1003500078016093790170937A0184B1482B44B994
:1003600087B1582B57B98AB1682B6AB98DB1782BF0
:100370007DB9DF91CF9108957F928F929F92AF9236
:10038000BF92CF92DF92EF92FF920F931F93CF9382
:10039000DF930F2EFBE08F2EF1E09F2EF02D0F2E1E
:1003A000F9E6AF2EF1E0BF2EF02D0F2EFDE4CF2E9B
:1003B000F1E0DF2EF02D0F2EF9E1EF2EF1E0FF2E10
:1003C000F02DC6E4D1E000E010E00F2EF2E37F2E26
:1003D000F02DD4018D914D010E94A303F50181936D
:1003E00091935F019250789EB001799E700D112417
:1003F000772314F461507E4F672F770F770B659545
:10040000882777FD8095982F0E945502D6016D931D
:100410007D938D939D936D0120E030E048EC51E495
:100420000E94900218168CF488818F5F8883853033
:1004300069F4D701ED91FC919081D801AE5EBE4F79
:100440008C9180958923808301C018820F5F1F4F94
:10045000B2E0EB0EF11C21960730110509F0B9CF7F
:10046000DF91CF911F910F91FF90EF90DF90CF9090
:10047000BF90AF909F908F907F90089595B180919D
:100480007701892B85B998B180917801892B88B93A
:100490009BB180917901892B8BB99EB180917A01B2
:1004A000892B8EB90895E89409C097FB3EF4909586
:1004B0008095709561957F4F8F4F9F4F9923A9F03D
:1004C000F92F96E9BB279395F695879577956795CC
:1004D000B795F111F8CFFAF4BB0F11F460FF1BC010
:1004E0006F5F7F4F8F4F9F4F16C0882311F096E9A3
:1004F00011C0772321F09EE8872F762F05C0662351
:1005000071F096E8862F70E060E02AF09A95660F09
:10051000771F881FDAF7880F9695879597F90895C2
:1005200003D008F48FEF0895990F0008550FAA0B18
:10053000E0E8FEEF16161706E807F907C0F01216F6
:100540001306E407F50798F0621B730B840B950BF9
:1005500039F40A2661F0232B242B252B21F408954E
:100560000A2609F4A140A6958FEF811D811D0895EB
:100570001F920F920FB60F9211242F933F938F93D8
:100580009F93AF93BF9380917C0190917D01A09147
:100590007E01B0917F0130917B0123E0230F2D3745
:1005A00020F40196A11DB11D05C026E8230F029677
:1005B000A11DB11D20937B0180937C0190937D014F
:1005C000A0937E01B0937F01809180019091810181
:1005D000A0918201B09183010196A11DB11D80936C
:1005E000800190938101A0938201B0938301BF9118
:1005F000AF919F918F913F912F910F900FBE0F90D0
:100600001F9018953FB7F8948091800190918101D7
:10061000A0918201B091830126B5A89B05C02F3F10
:1006200019F00196A11DB11D3FBF6627782F892FB4
:100630009A2F620F711D811D911D42E0660F771F79
:10064000881F991F4A95D1F70895CF92DF92EF92B4
:10065000FF92CF93DF936B017C010E940203EB01B9
:10066000C114D104E104F10489F00E947C080E94C5
:1006700002036C1B7D0B683E734090F381E0C81A47
:10068000D108E108F108C851DC4FEACFDF91CF91E2
:10069000FF90EF90DF90CF900895789484B58260BA
:1006A00084BD84B5816084BD85B5826085BD85B516
:1006B000816085BDEEE6F0E0808181608083E1E8C5
:1006C000F0E01082808182608083808181608083FD
:1006D000E0E8F0E0808181608083E1E9F0E0808102
:1006E00082608083808181608083E0E9F0E08081A6
:1006F00081608083E1ECF0E0808184608083808190
:1007000082608083808181608083E3ECF0E080817F
:1007100081608083E0ECF0E0808182608083E2ECA5
:10072000F0E0808181608083EAE7F0E0808184608E
:1007300080838081826080838081816080838081EA
:10074000806880830895823108F08251E82FF0E0BC
:10075000E455FF4FE49180917B00E3FB222720F9D1
:1007600030E095E0220F331F9A95E1F78F7D822BC1
:1007700080937B00E7708091000120E4829FC0019C
:100780001124E82BE0937C0080917A0080648093B0
:100790007A0080917A0086FDFCCF809178002091CC
:1007A000790090E0922B0895CF93DF931F92CDB7FD
:1007B000DEB76983DC01ED91FC910280F381E02DCD
:1007C00041E050E0BE016F5F7F4F09950F90DF91D0
:1007D000CF910895CF93DF93EC018C859D8597FF92
:1007E00005C082E00E94A9059D878C878C859D8528
:1007F000DF91CF91089583E00C94FE07FC0184857E
:10080000958597FD06C082E00E94510590E0019613
:10081000089582E00E94510590E00895FC018485CE
:10082000958597FD05C02FEF3FEF35872487089505
:1008300082E00C94A905CF93DF93EC01809108012D
:10084000882331F083E00E94DA051816190634F087
:1008500081E090E09B838A8380E090E0DF91CF91FC
:100860000895FC0120812E5F208342E450E068EB74
:1008700070E080E80C947506FC0181819081913ACA
:1008800059F4813209F04BC047E050E061E071E07B
:1008900080E00E94750645C0913209F040C0803268
:1008A00039F467E070E081E091E00E94A60639C06B
:1008B000823209F034C08281809308018091010165
:1008C00090910201A0910301B0910401803B9440FA
:1008D000A105B10531F58091080180FD12C087E7BF
:1008E00097E790930108809300082BE088E190E05F
:1008F0000FB6F894A895809360000FBE2093600017
:1009000010C088E10FB6F8948093600010926000E8
:100910000FBEA895109201081092000802C080E056
:10092000089581E00895109287011092860188EE63
:1009300093E0A0E0B0E08093880190938901A093B8
:100940008A01B0938B018BE291E0909385018093B3
:1009500084018FEF9FEF9093910180939001089510
:10096000CF92DF92EF92FF920F931F93CF93DF937B
:100970006C017A01EB01E60EF71E00E010E0CE15E7
:10098000DF0561F06991D601ED91FC910190F08154
:10099000E02DC6010995080F191FF1CFC801DF919D
:1009A000CF911F910F91FF90EF90DF90CF9008951E
:1009B0004091D8015091D9012091D6013091D701B1
:1009C00042175307B4F49091E8009570E1F39091C9
:1009D000E80092FD19C08093F1008091D8019091B8
:1009E000D90101968F739927892B19F48EEF809383
:1009F000E8008091D8019091D90101969093D90196
:100A00008093D80181E0089580E00895CF92DF922D
:100A1000FF920F931F93CF93DF931F92CDB7DEB753
:100A2000082F162F862F880F8E5F99830E94D80477
:100A300083E00E94D804F02EC02E9981D92E8C2DEF
:100A40008F19811778F4F60184910E94D804082F39
:100A500080E00E94D8048023FFEFCF1ADF0A8111C3
:100A6000EECF01C081E00F90DF91CF911F910F91E8
:100A7000FF90DF90CF900895615030F02091F10009
:100A8000FC0120830196F8CF289884E68093DB014F
:100A900008952FB7FC012083F89467706093E900F4
:100AA0000895CF93DF931F92CDB7DEB7682FCE01A5
:100AB00001960E9449058091F20099819FBF0F9095
:100AC000DF91CF910895FF920F931F93CF93DF9300
:100AD00000D0CDB7DEB7F62E8A019091DA019923C6
:100AE00011F057FF03C08FEF9FEF2BC0682FCE018F
:100AF00001967A830E9449058091F20090E0A80156
:100B00007A81801791070CF4AC01EF2DF72FF40ECA
:100B100084E6FE1639F028988093DB019091F1006D
:100B20009193F7CF4115510521F08091F200882370
:100B300021F089818FBFCA0104C08BE68093E80051
:100B4000F8CF0F900F90DF91CF911F910F91FF90F1
:100B50000895CF93DF931F92CDB7DEB741E050E009
:100B6000BE016F5F7F4F0E946305019719F4898171
:100B700090E002C08FEF9FEF0F90DF91CF9108952B
:100B8000CF93DF931F92CDB7DEB7682FCE010196CA
:100B90000E9449059091E800892F807295FF04C05A
:100BA0009091F20080E4891B99819FBF0F90DF91A3
:100BB000CF9108956F927F928F929F92AF92BF9242
:100BC000CF92DF92EF92FF920F931F93CF93DF9319
:100BD0001F92CDB7DEB7782E7B01C42EB52E809143
:100BE000DA01882369F0042F152F8AEFD82E872D7C
:100BF0008072982E9AE3A92E872D8074882E11C0BA
:100C00008FEF9FEF57C0872D0E94C005682E81117E
:100C10000CC0DA94A9F361E070E080E090E00E94FB
:100C200025030115110579F73BC0282F30E0021785
:100C300013070CF4602E672DCE0101960E94490522
:100C40008091E80085FF29C0262D30E0021B130BA0
:100C5000992039F06A948FEF6816B1F01092F10084
:100C6000F9CFF701862D77FE07C0815058F0949197
:100C70009093F1003196F9CF815020F091919093AB
:100C8000F100FACFE20EF31E8091E80085FF0FC05D
:100C90000115110511F481100AC089818FBFC1CFE0
:100CA0005D9884E68093DC018C2D9B2D03C0A0927F
:100CB000E800F3CF0F90DF91CF911F910F91FF903C
:100CC000EF90DF90CF90BF90AF909F908F907F90EC
:100CD0006F9008951092E9001092D9011092D801F6
:100CE0009093D7018093D6010895CF92DF92FF921F
:100CF0000F931F93CF93DF9300D0CDB7DEB7F82EBD
:100D00008A016B0101151105B1F0F601F7FE02C071
:100D1000849101C0808149835A830E94D804015084
:100D20001109FFEFCF1ADF0A49815A818111EACFF9
:100D30008FEF9FEF01C0CA010F900F90DF91CF910D
:100D40001F910F91FF90DF90CF9008951F93CF9345
:100D5000DF931F92CDB7DEB7162F2091E80022FF58
:100D6000FCCF612F79830E943C058BEF8093E800D4
:100D7000812F7981972F0F90DF91CF911F91089547
:100D8000CF93DF931F92CDB7DEB71982CE010196C4
:100D90000E943104CE0101960E949B08898190E057
:100DA0000F90DF91CF9108951F920F920FB60F927F
:100DB0001124EF92FF920F931F932F933F934F9322
:100DC0005F936F937F938F939F93AF93BF93EF93B3
:100DD000FF93CF93DF93CDB7DEB76297DEBFCDBF72
:100DE0001092E9008091E80083FFEBC068E0CE013B
:100DF0000A960E943C0582EF8093E8009A8597FF4F
:100E000005C08091E80080FFFCCF03C08EEF809387
:100E1000E800892F807609F0B9C08B85811105C063
:100E20001092F1001092F100C5C0282F2D7F2130C3
:100E300009F4C0C0853049F48091E80080FFFCCF00
:100E40008C8580688093E300B5C0863009F076C059
:100E50002D85E888F988223071F580E090E02A8BB2
:100E60000E946A060E94C00699E08E010F5F1F4F24
:100E7000F801392F11923A95E9F799832A892A8343
:100E800091E09E8390E898879AEF99872091D80106
:100E90003091D901275F3F4F3C832B838D83C7015E
:100EA0000E946A0649E050E0B80180E00E947506A1
:100EB0000E94C0067FC0C7012A8B0E946A062A8949
:100EC000223241F482E290E00E94A608892B09F0C8
:100ED00071C074C0213069F488899989089711F428
:100EE0002093D5018091D501811118C061E171E095
:100EF0001AC0233009F062C08C85882391F08230BB
:100F000021F460E18FE291E006C0813009F056C023
:100F10006BE083E291E00E9406054AC06FEF70E04B
:100F200002C060E471E06115710509F447C0FB017E
:100F3000449150E080E80E9475063CC0873009F477
:100F40003DC0883021F481E08093F10033C08930C6
:100F500089F5937099F5EBEFF0E081E021E096E3FD
:100F60008093E9002093EB0034913093EC00909350
:100F7000ED008F5F3196853099F78EE78093EA0018
:100F80001092EA008C858093DA0114C088899989CF
:100F90000E946A068E85811105C0CE010A960E94C4
:100FA0003C0406C0823051F4CE010A960E94CE085D
:100FB000882321F08EEF8093E80003C081E28093C4
:100FC000EB0062960FB6F894DEBF0FBECDBFDF9187
:100FD000CF91FF91EF91BF91AF919F918F917F91B1
:100FE0006F915F914F913F912F911F910F91FF90C2
:100FF000EF900F900FBE0F901F9018958093E9000F
:101000008091F200882319F08AE38093E800089524
:101010001F920F920FB60F9211242F933F934F936D
:101020005F936F937F938F939F93AF93BF93EF9350
:10103000FF938091E1001092E10083FF0FC01092B6
:10104000E90091E09093EB001092EC0092E3909312
:10105000ED001092DA0198E09093F00082FF1DC03D
:1010600083E00E94FE078091DC01882339F08091A3
:10107000DC0181508093DC01882369F08091DB01E1
:10108000882359F08091DB0181508093DB0181112D
:1010900004C0289A02C05D9AF1CFFF91EF91BF91F1
:1010A000AF919F918F917F916F915F914F913F9100
:1010B0002F910F900FBE0F901F9018951092DA018C
:1010C00081E08093D70080EA8093D80082E189BDD7
:1010D00009B400FEFDCF61E070E080E090E00E9486
:1010E000250380E98093D8008CE08093E200109281
:1010F000E000559A209A08950895FF920F931F9348
:10110000CF93DF93EC01F62EE881F9810480F5811D
:10111000E02D09958C01E881F9810680F781E02DA9
:101120006F2DCE010995C8019927DF91CF911F91AD
:101130000F91FF900895FC0120812F5F208349E1EA
:1011400050E064EC71E080E80C94750645E650E0F0
:101150006DED71E080E80C947506EF92FF920F93AD
:101160001F93CF93DF931F92CDB7DEB789838B0197
:101170007A0141E050E0BE016F5F7F4F84E00E9442
:10118000DA05A701B80184E40E94DA050F90DF9127
:10119000CF911F910F91FF90EF900895FC019181E5
:1011A0008081813A31F481E0913091F0933089F47B
:1011B00011C0813271F49B3021F4828180930A0145
:1011C00005C09A3031F482818093090181E008954D
:1011D000089580E0089548E050E082E00C94AD0866
:1011E000CF93DF93DC01683818F0E8E7E60F25C0FD
:1011F000E62FF0E067FF11C0E058F10981E090E0D0
:1012000001C0880FEA95EAF714969C911497982BE1
:1012100014969C931497E0E010C0EC5BFE4FE491B1
:10122000EE2309F440C0E7FF08C014968C91149790
:10123000826014968C931497EF7716968C9116977C
:101240008E1741F117968C9117978E1719F11896F2
:101250008C9118978E17F1F019968C9119978E171B
:10126000C9F01A968C911A978E17A1F01B968C9143
:101270001B978E1779F080E090E0ED01C80FD91F21
:101280002E81211102C0EE8305C0019686309105A2
:10129000A1F709C0BD016C5F7F4FCD010E94EB0833
:1012A00081E090E008C081E090E013969C938E93DB
:1012B000129780E090E0DF91CF910895683818F0A0
:1012C000E8E7E60F25C0E62FF0E067FF12C0E05820
:1012D000F10921E030E001C0220FEA95EAF72095FC
:1012E000DC0114963C911497322314963C93E0E071
:1012F0000FC0EC5BFE4FE491EE2329F1E7FF08C03D
:10130000DC0114962C9114972D7F14962C93EF7773
:1013100020E030E0EE2351F0DC01A20FB31F16965F
:101320004C9116974E1302C016961C922F5F3F4F9A
:101330002630310579F7BC016C5F7F4F0E94EB08C6
:1013400081E090E0089580E090E00895FC0116822D
:10135000178210861186128613861482BC016C5F78
:101360007F4F0C94EB081092E9011092E00110926B
:10137000DF018BE391E09093DE018093DD0108951E
:10138000EE0FFF1F0590F491E02D0994F894FFCF24
:101390000100E10000000000000101030201000A59
:1013A0000908048040200201022E00280028002B9A
:1013B000002B002B00250000000000D4031B04FEBE
:1013C000030E04EA03FB03000000007D08B004F0F4
:0613D000085E09A60900F9
:00000001FF
