S0120000506F776572426F6172642E737265631D
S11300000C9476010C949E010C949E010C949E0118
S11300100C949E010C949E010C949E010C949E01E0
S11300200C949E010C9471020C94ED0C0C94B90B7D
S11300300C949E010C949E010C949E010C949E01C0
S11300400C949E010C949E010C949E010C949E01B0
S11300500C949E010C949E010C949E010C94E50654
S11300600C949E010C949E010C949E010C949E0190
S11300700C949E010C949E010C949E010C949E0180
S11300800C949E010C949E010C949E010C949E0170
S11300900C949E010C949E010C949E010C949E0160
S11300A00C949E010C949E010C949E012508280832
S11300B017081B0821084908490849082C08300872
S11300C034083A083E0849084408070605040100B4
S11300D0080A0B0C0D090000000200090F000003C0
S11300E00401000C000000000000000000000000FB
S11300F000000000040802011040804010204080ED
S11301004080080204018040201002011080102069
S1130110404004040404040304050202020204032C
S1130120020202020606060606060404020202048D
S1130130000000002300260029002C002F000000EE
S11301400000250028002B002E00310000000000D4
S1130150240027002A002D003000080B00020202B0
S1130160010009040000010202000005240010013E
S113017005240101010424020605240600010705E3
S1130180810310004009040100020A000000070571
S113019002024000000705830240000000C1808184
S11301A0C112010002020000404123368000010117
S11301B002000112010002000000404123368000C9
S11301C0010102000141726475696E6F204C4C4359
S11301D00041726475696E6F204C656F6E61726464
S11301E06F000403090400000000000000002A2B33
S11301F028000000000000000000000000000000D3
S11302000000000000002C9EB4A0A1A2A434A6A764
S1130210A5AE362D3738271E1F202122232425265C
S1130220B333B62EB7B89F8485868788898A8B8C2A
S11302308D8E8F909192939495969798999A9B9C72
S11302409D2F3130A3AD350405060708090A0B0CB0
S11302500D0E0F101112131415161718191A1B1C52
S11302601DAFB1B0B500090402000103000000098C
S113027021010100012265000705840340000105F6
S1130280010902A1010901A100850105091901293A
S113029003150025019503750181029501750581FA
S11302A00305010930093109381581257F75089541
S11302B0038106C0C005010906A1018502050719CD
S11302C0E029E7150025017501950881029501755E
S11302D00881039506750815002565050719002989
S11302E0658100C080037809980E880311241FBE1D
S11302F0CFEFDAE0DEBFCDBF11E0A0E0B1E0E0E88F
S1130300FDE102C005900D92A635B107D9F722E0B0
S1130310A6E5B1E001C01D92A936B207E1F712E0EB
S1130320CAEED2E004C02297FE010E94A70EC43E8A
S1130330D107C9F70E9420040C94B30E0C9400005A
S1130340209198013091990128173907B9F49091B7
S11303505601809157019817A1F0E0915601F0E001
S1130360E85AFE4F80812091560130E02F5F3F4FC5
S11303702F7330782093560190E008958FEF9FEF0C
S113038008958FEF9FEF089520919801309199017E
S113039028173907B1F4209157018091560130E0B4
S11303A0205C3F4F281B31092F733078332334F4FA
S11303B021503109206C3F6F2F5F3F4F822F932FC5
S11303C0089580E090E008951F93CF93DF93EC01AC
S11303D02C8D3D8D2115310539F481E090E09B830E
S11303E08A8380E090E039C0A989BA894889542F6A
S11303F050951FB78E8D81FB772770F981FD60952D
S1130400F894772321F08C91842B8C9303C08C91E6
S113041085238C93C9010197F1F788E060FF04C03C
S11304209C91942B9C9303C09C9195239C93F901DC
S11304303197F1F76695815089F7772321F08C91F4
S113044058235C9303C08C91482B4C931FBF8C8D15
S11304509D8D0197F1F781E090E0DF91CF911F919D
S1130460089520919801309199012817390739F49A
S11304708FB7F89410925701109256018FBF0895C8
S113048020919801309199012817390771F49091BE
S1130490560180915701981759F0E0915601F0E008
S11304A0E85AFE4F808190E008958FEF9FEF089502
S11304B08FEF9FEF0895E0919801F0919901E8176B
S11304C0F90769F4A389B4899C9185898095892366
S11304D08C93109299011092980181E0089580E024
S11304E008951F920F920FB60F9211242F933F93EA
S11304F04F935F936F937F938F939F93AF93BF9328
S1130500EF93FF93E0919801F0919901309709F4EA
S11305105BC0868D81FF09C0A685B7859C918585C2
S1130520982381E051F480E008C0A685B7859C91AA
S11305308585982381E009F080E0882309F444C08C
S1130540A389B4899C918589809589238C93868914
S113055097890197F1F7208D318DA685B78575852B
S113056048E050E0C9010197F1F7852F90E0959597
S11305708795582F6C91672309F05068415091F783
S1130580868D81FD50952091570130E02F5F3F4FBC
S11305902F73307880915601821749F0A09157014A
S11305A0B0E0A85ABE4F5C932093570103C0868DD8
S11305B08160868F828D938D0197F1F7A389B48929
S11305C09C918589892B8C93FF91EF91BF91AF9179
S11305D09F918F917F916F915F914F913F912F9157
S11305E00F900FBE0F901F9018952FE031E0FC0183
S11305F0318320830E945B0208951F93CF93DF937E
S1130600EC01162F6E8D6695617081E06827812F4D
S11306100E94830861E0812F0E944A08812F90E0A4
S1130620FC01EC50FF4FE491E88BFC01EE5EFE4FC1
S1130630E491F0E0EE0FFF1FE25CFE4F8591949190
S11306409A8B898BDF91CF911F9108951F93CF933C
S1130650DF93EC01162F60E0812F0E944A088E8DF3
S113066081FD04C061E0812F0E9483081C87612FF3
S113067070E0FB01EC50FF4FE491ED87FB01EE5E6F
S1130680FE4FE491F0E0EE0FFF1FE05DFE4F859119
S113069094919F878E87DF91CF911F910895FF9248
S11306A00F931F93CF93DF93EC01F62E522F1B82EF
S11306B01A8208EE13E020E030E00C831D832E83C1
S11306C03F838FE091E0998388831F8A1E8A198E65
S11306D0188E1B8E1A8E1D8E1C8E8E8D8E7F50FB57
S11306E081F98E8F642FCE010E94FD026F2DCE0101
S11306F00E942603DF91CF911F910F91FF900895DF
S113070020E041E060E08AE991E00E944F0308950F
S11307108AE991E00E94F5020895EF92FF920F9307
S11307201F93CF93DF93EC0106EC11E07C018EE084
S1130730E80EF11CCE010E94AB0EF80131978083C4
S1130740CE0101960E94AB0EF801808322960E5FC3
S11307501F4FCE15DF0571F7DF91CF911F910F91D8
S1130760FF90EF90089508950E945D050E94C604CD
S11307701092BD011092BE011092BF011092C001EF
S113078088E893E1A0E0B0E08093B9019093BA01C6
S1130790A093BB01B093BC0108950F931F930E94D3
S11307A02F076093C1017093C2018093C30190939A
S11307B0C4010091BD011091BE012091BF0130918F
S11307C0C001061717072807390790F40E942F075E
S11307D0DC01CB018C599F4FAF4FBF4F8093BD01BC
S11307E09093BE01A093BF01B093C0010E9438044E
S11307F04091B9015091BA016091BB017091BC0163
S11308008091C1019091C201A091C301B091C40132
S1130810481759076A077B0780F40E942F07DC01F9
S1130820CB0188519C4FAF4FBF4F8093B901909338
S1130830BA01A093BB01B093BC011F910F9108951D
S11308400E9486070E94B30383E592E00E94430D51
S11308500E94B4030E94CD0380E090E0892B29F02C
S11308600E9400000E94CD03FBCF0E94CD03FDCF68
S11308702F923F924F925F926F927F928F929F92AC
S1130880AF92BF92CF92DF92EF92FF920F931F939A
S1130890CF93DF930F2EFBE1AF2EF1E0BF2EF02DAF
S11308A00F2EF5EC8F2EF1E09F2EF02D0F2EFAED8A
S11308B02F2EF1E03F2EF02D0F2EF9E2CF2EF1E096
S11308C0DF2EF02DC3EDD1E000E010E0D5018D91D5
S11308D05D010E94DC07F401E190F1904F018E1953
S11308E09F09BC0180E090E00E94CC0520E030E04C
S11308F048E452E40E945E062B013C01B70180E00B
S113090090E00E94CC059B01AC01C301B2010E949E
S11309106405D1016D937D938D939D931D0120E01A
S113092030E048EC51E40E945A0618168CF4888191
S11309308F5F8883853069F4D601ED91FC919081B5
S1130940D801AE5DBE4F8C9180958923808301C010
S113095018820F5F1F4FB2E0CB0ED11C21960730D7
S1130960110509F0B3CFDF91CF911F910F91FF9043
S1130970EF90DF90CF90BF90AF909F908F907F903B
S11309806F905F904F903F902F90089595B1809114
S1130990F601892B85B998B18091F701892B88B923
S11309A09BB18091F801892B8BB99EB18091F9019B
S11309B0892B8EB90895EF92FF920F931F93CF93D3
S11309C0DF9300D0CDB7DEB76091F6017091F701E7
S11309D01091F8010091F901E9E2F1E023ED31E031
S11309E00F2EF2E2EF2EF1E0FF2EF02D47E351E05F
S11309F0819191918532910521F4D7018C91682BD5
S1130A0013C08832910521F4D7018C91782B0CC046
S1130A108B32910521F4D7018C91182B05C08E9748
S1130A2019F4D7018C91082BD9011D929D01BFEFB8
S1130A30EB1AFB0AE417F507D9F66093F6017093F5
S1130A40F7011093F8010093F90180E090E00E940F
S1130A50AB0E898381E090E00E94AB0E8A8389818A
S1130A609A81892B29F089E090E00E948D0306C0C9
S1130A708FEF91E09093D4018093D30194B180914E
S1130A80F601892B84B997B18091F701892B87B935
S1130A909AB18091F801892B8AB99DB18091F901AD
S1130AA0892B8DB90E94C6040F900F90DF91CF91CE
S1130AB01F910F91FF90EF9008950E94DB046E9AAE
S1130AC0769A209A289A08950CD0BAC0B2D040F0F1
S1130AD0A9D030F021F45F3F19F09BC05111E4C05C
S1130AE09EC0BFD098F39923C9F35523B1F3951B46
S1130AF0550BBB27AA2762177307840738F09F5F3B
S1130B005F4F220F331F441FAA1FA9F333D00E2EA9
S1130B103AF0E0E830D091505040E695001CCAF716
S1130B2029D0FE2F27D0660F771F881FBB1F2617DB
S1130B3037074807AB07B0E809F0BB0B802DBF01AE
S1130B40FF2793585F4F2AF09E3F510568F061C01C
S1130B50ABC05F3FECF3983EDCF3869577956795E1
S1130B60B795F7959F5FC9F7880F911D969587955F
S1130B7097F90895E1E0660F771F881FBB1F62177E
S1130B8073078407BA0720F0621B730B840BBA0B3C
S1130B90EE1F88F7E0950895E89409C097FB3EF4AA
S1130BA090958095709561957F4F8F4F9F4F9923B6
S1130BB0A9F0F92F96E9BB279395F6958795779534
S1130BC06795B795F111F8CFFAF4BB0F11F460FFF4
S1130BD01BC06F5F7F4F8F4F9F4F16C0882311F04C
S1130BE096E911C0772321F09EE8872F762F05C060
S1130BF0662371F096E8862F70E060E02AF09A95FB
S1130C00660F771F881FDAF7880F9695879597F9EF
S1130C10089597F99F6780E870E060E008959FEF7A
S1130C2080EC089500240A9416161706180609067F
S1130C30089500240A94121613061406050608954E
S1130C40092E0394000C11F4882352F0BB0F40F4D6
S1130C50BF2B11F460FF04C06F5F7F4F8F4F9F4F16
S1130C60089557FD9058440F551F59F05F3F71F098
S1130C704795880F97FB991F61F09F3F79F08795FF
S1130C800895121613061406551FF2CF4695F1DF88
S1130C9008C0161617061806991FF1CF8695710518
S1130CA0610508940895E894BB2766277727CB014C
S1130CB097F9089566D008F48FEF08950BD0C0CF4C
S1130CC0B1DF28F0B6DF18F0952309F0A2CFA7CF43
S1130CD01124EACFC6DFA0F3959FD1F3950F50E01E
S1130CE0551F629FF001729FBB27F00DB11D639FDA
S1130CF0AA27F00DB11DAA1F649F6627B00DA11D80
S1130D00661F829F2227B00DA11D621F739FB00D25
S1130D10A11D621F839FA00D611D221F749F332795
S1130D20A00D611D231F849F600D211D822F762F2E
S1130D306A2F11249F5750408AF0E1F088234AF02B
S1130D40EE0FFF1FBB1F661F771F881F9150504077
S1130D50A9F79E3F510570F05CCFA6CF5F3FECF33F
S1130D60983EDCF3869577956795B795F795E79563
S1130D709F5FC1F7FE2B880F911D9695879597F974
S1130D800895990F0008550FAA0BE0E8FEEF161618
S1130D901706E807F907C0F012161306E407F5076B
S1130DA098F0621B730B840B950B39F40A2661F0DF
S1130DB0232B242B252B21F408950A2609F4A14082
S1130DC0A6958FEF811D811D08951F920F920FB676
S1130DD00F9211242F933F938F939F93AF93BF93BD
S1130DE08091FB019091FC01A091FD01B091FE0165
S1130DF03091FA0123E0230F2D3720F40196A11D31
S1130E00B11D05C026E8230F0296A11DB11D209334
S1130E10FA018093FB019093FC01A093FD01B09330
S1130E20FE018091FF0190910002A0910102B09116
S1130E3002020196A11DB11D8093FF01909300024F
S1130E40A0930102B0930202BF91AF919F918F9141
S1130E503F912F910F900FBE0F901F9018952FB7B1
S1130E60F8946091FB017091FC018091FD019091D7
S1130E70FE012FBF08953FB7F8948091FF01909130
S1130E800002A0910102B091020226B5A89B05C000
S1130E902F3F19F00196A11DB11D3FBF6627782F82
S1130EA0892F9A2F620F711D811D911D42E0660FDB
S1130EB0771F881F991F4A95D1F70895CF92DF9223
S1130EC0EF92FF92CF93DF936B017C010E943B076B
S1130ED0EB01C114D104E104F10489F00E94610D15
S1130EE00E943B076C1B7D0B683E734090F381E0CE
S1130EF0C81AD108E108F108C851DC4FEACFDF91E4
S1130F00CF91FF90EF90DF90CF900895789484B5BF
S1130F10826084BD84B5816084BD85B5826085BDF1
S1130F2085B5816085BDEEE6F0E0808181608083D7
S1130F30E1E8F0E0108280818260808380818160BA
S1130F408083E0E8F0E0808181608083E1E9F0E083
S1130F50808182608083808181608083E0E9F0E029
S1130F60808181608083E1ECF0E080818460808313
S1130F70808182608083808181608083E3ECF0E003
S1130F80808181608083E0ECF0E0808182608083F6
S1130F90E2ECF0E0808181608083EAE7F0E0808128
S1130FA0846080838081826080838081816080838B
S1130FB08081806880830895823108F08251E82F0F
S1130FC0F0E0E653FF4FE49180917B00E3FB22279E
S1130FD020F930E095E0220F331F9A95E1F78F7DD9
S1130FE0822B80937B00E7708091000120E4829F34
S1130FF0C0011124E82BE0937C0080917A00806486
S113100080937A0080917A0086FDFCCF80917800ED
S11310102091790090E0922B089590E0FC013197A3
S1131020EF30F105B0F5EA5AFF4F0C94A50E80910C
S113103080008F7703C0809180008F7D8093800033
S1131040089580918000877FF9CF84B58F7702C09F
S113105084B58F7D84BD0895809190008F7707C0FB
S1131060809190008F7D03C080919000877F809352
S1131070900008958091C0008F7703C08091C000D4
S11310808F7D8093C00008958091C200877F8093F4
S1131090C2000895CF93DF9390E0FC01EC50FF4F22
S11310A02491FC01EE5EFE4F8491882349F190E087
S11310B0880F991FFC01E45BFE4FA591B491825CFB
S11310C09E4FFC01C591D4919FB7611108C0F8945B
S11310D08C91209582238C93888182230AC062306C
S11310E051F4F8948C91322F309583238C9388811A
S11310F0822B888304C0F8948C91822B8C939FBF9D
S1131100DF91CF9108950F931F93CF93DF931F9295
S1131110CDB7DEB7282F30E0F901EA52FF4F8491B2
S1131120F901EC50FF4F1491F901EE5EFE4F04916A
S11311300023C9F0882321F069830E940D08698186
S1131140E02FF0E0EE0FFF1FE25CFE4FA591B4919B
S11311509FB7F8948C91611103C01095812301C04D
S1131160812B8C939FBF0F90DF91CF911F910F9193
S11311700895CF93DF931F92CDB7DEB76983DC0167
S1131180ED91FC910280F381E02D41E050E0BE013D
S11311906F5F7F4F09950F90DF91CF910895CF93A3
S11311A0DF93EC018C859D8597FF05C082E00E944A
S11311B08E0A9D878C878C859D85DF91CF910895BC
S11311C083E00C94E30CFC018485958597FD06C0AF
S11311D082E00E94360A90E00196089582E00E941F
S11311E0360A90E00895FC018485958597FD05C035
S11311F02FEF3FEF35872487089582E00C948E0A01
S1131200CF93DF93EC0180910801882331F083E0D0
S11312100E94BF0A1816190634F081E090E09B83FF
S11312208A8380E090E0DF91CF910895FC012081D2
S11312302E5F208342E450E06AE571E080E80C947C
S11312405A0BFC0181819081913A59F4813209F061
S11312504BC047E050E061E071E080E00E945A0B2F
S113126045C0913209F040C0803239F467E070E043
S113127081E091E00E948B0B39C0823209F034C0C6
S11312808281809308018091010190910201A091D3
S11312900301B0910401803B9440A105B10531F5EF
S11312A08091080180FD12C087E797E790930108B9
S11312B0809300082BE088E190E00FB6F894A8959D
S11312C0809360000FBE2093600010C088E10FB6C9
S11312D0F89480936000109260000FBEA89510925D
S11312E001081092000802C080E0089581E008958A
S11312F0109206021092050288EE93E0A0E0B0E09E
S11313008093070290930802A0930902B0930A0203
S11313108BE391E090930402809303028FEF9FEF9D
S11313209093100280930F020895CF92DF92EF9270
S1131330FF920F931F93CF93DF936C017A01EB011C
S1131340E60EF71E00E010E0CE15DF0561F06991AE
S1131350D601ED91FC910190F081E02DC601099533
S1131360080F191FF1CFC801DF91CF911F910F9181
S1131370FF90EF90DF90CF900895409157025091E5
S11313805802209155023091560242175307B4F483
S11313909091E8009570E1F39091E80092FD19C0F6
S11313A08093F100809157029091580201968F73B7
S11313B09927892B19F48EEF8093E80080915702C6
S11313C0909158020196909358028093570281E0BD
S11313D0089580E00895CF92DF92FF920F931F93B8
S11313E0CF93DF931F92CDB7DEB7082F162F862F2A
S11313F0880F8E5F99830E94BD0983E00E94BD0916
S1131400F02EC02E9981D92E8C2D8F19811778F446
S1131410F60184910E94BD09082F80E00E94BD0955
S11314208023FFEFCF1ADF0A8111EECF01C081E0E4
S11314300F90DF91CF911F910F91FF90DF90CF908C
S11314400895615030F02091F100FC012083019651
S1131450F8CF289884E680935A0208952FB7FC01A8
S11314602083F89467706093E9000895CF93DF9325
S11314701F92CDB7DEB7682FCE0101960E942E0AC7
S11314808091F20099819FBF0F90DF91CF910895D1
S1131490FF920F931F93CF93DF9300D0CDB7DEB7A6
S11314A0F62E8A0190915902992311F057FF03C037
S11314B08FEF9FEF2BC0682FCE0101967A830E9495
S11314C02E0A8091F20090E0A8017A81801791079A
S11314D00CF4AC01EF2DF72FF40E84E6FE1639F070
S11314E0289880935A029091F1009193F7CF411577
S11314F0510521F08091F200882321F089818FBF6A
S1131500CA0104C08BE68093E800F8CF0F900F90D7
S1131510DF91CF911F910F91FF900895CF93DF93A7
S11315201F92CDB7DEB741E050E0BE016F5F7F4F41
S11315300E94480A019719F4898190E002C08FEF54
S11315409FEF0F90DF91CF910895CF93DF931F9278
S1131550CDB7DEB7682FCE0101960E942E0A909176
S1131560E800892F807295FF04C09091F20080E416
S1131570891B99819FBF0F90DF91CF9108956F923E
S11315807F928F929F92AF92BF92CF92DF92EF920F
S1131590FF920F931F93CF93DF931F92CDB7DEB7C4
S11315A0782E7B01C42EB52E80915902882369F0D0
S11315B0042F152F8AEFD82E872D8072982E9AE348
S11315C0A92E872D8074882E11C08FEF9FEF57C0EE
S11315D0872D0E94A50A682E81110CC0DA94A9F304
S11315E061E070E080E090E00E945E070115110563
S11315F079F73BC0282F30E0021713070CF4602E54
S1131600672DCE0101960E942E0A8091E80085FF85
S113161029C0262D30E0021B130B992039F06A945F
S11316208FEF6816B1F01092F100F9CFF701862D13
S113163077FE07C0815058F094919093F100319651
S1131640F9CF815020F091919093F100FACFE20EFE
S1131650F31E8091E80085FF0FC00115110511F4F8
S113166081100AC089818FBFC1CF5D9884E68093C1
S11316705B028C2D9B2D03C0A092E800F3CF0F904A
S1131680DF91CF911F910F91FF90EF90DF90CF905A
S1131690BF90AF909F908F907F906F90089510921D
S11316A0E9001092580210925702909356028093C8
S11316B055020895CF92DF92FF920F931F93CF9319
S11316C0DF9300D0CDB7DEB7F82E8A016B01011588
S11316D01105B1F0F601F7FE02C0849101C08081CA
S11316E049835A830E94BD0901501109FFEFCF1AA3
S11316F0DF0A49815A818111EACF8FEF9FEF01C040
S1131700CA010F900F90DF91CF911F910F91FF901D
S1131710DF90CF9008951F93CF93DF931F92CDB79F
S1131720DEB7162F2091E80022FFFCCF612F7983CA
S11317300E94210A8BEF8093E800812F7981972FF3
S11317400F90DF91CF911F910895CF93DF931F9254
S1131750CDB7DEB71982CE0101960E941609CE01DB
S113176001960E94800D898190E00F90DF91CF91C6
S113177008951F920F920FB60F921124EF92FF92C9
S11317800F931F932F933F934F935F936F937F9385
S11317908F939F93AF93BF93EF93FF93CF93DF9375
S11317A0CDB7DEB76297DEBFCDBF1092E90080915E
S11317B0E80083FFEBC068E0CE010A960E94210A8C
S11317C082EF8093E8009A8597FF05C08091E80036
S11317D080FFFCCF03C08EEF8093E800892F8076D2
S11317E009F0B9C08B85811105C01092F1001092E7
S11317F0F100C5C0282F2D7F213009F4C0C08530E9
S113180049F48091E80080FFFCCF8C858068809348
S1131810E300B5C0863009F076C02D85E888F988E4
S1131820223071F580E090E02A8B0E944F0B0E94D9
S1131830A50B99E08E010F5F1F4FF801392F11920C
S11318403A95E9F799832A892A8391E09E8390E85F
S113185098879AEF99872091570230915802275F11
S11318603F4F3C832B838D83C7010E944F0B49E07C
S113187050E0B80180E00E945A0B0E94A50B7FC083
S1131880C7012A8B0E944F0B2A89223241F482E23B
S113189090E00E948B0D892B09F071C074C0213037
S11318A069F488899989089711F4209354028091E6
S11318B05402811118C063EB71E01AC0233009F09F
S11318C062C08C85882391F0823021F460E181ED3F
S11318D091E006C0813009F056C06BE085EC91E0E0
S11318E00E94EB094AC061EA71E002C062EE71E055
S11318F06115710509F447C0FB01449150E080E88B
S11319000E945A0B3CC0873009F43DC0883021F452
S113191081E08093F10033C0893089F5937099F5A3
S1131920EDE9F1E081E021E096E38093E900209382
S1131930EB0034913093EC009093ED008F5F31967F
S1131940853099F78EE78093EA001092EA008C853F
S11319508093590214C0888999890E944F0B8E85FF
S1131960811105C0CE010A960E94210906C0823069
S113197051F4CE010A960E94B30D882321F08EEF14
S11319808093E80003C081E28093EB0062960FB677
S1131990F894DEBF0FBECDBFDF91CF91FF91EF91E1
S11319A0BF91AF919F918F917F916F915F914F9173
S11319B03F912F911F910F91FF90EF900F900FBEC9
S11319C00F901F9018958093E9008091F20088236E
S11319D019F08AE38093E80008951F920F920FB6DE
S11319E00F9211242F933F934F935F936F937F93A1
S11319F08F939F93AF93BF93EF93FF938091E100F5
S1131A001092E10083FF0FC01092E90091E09093DF
S1131A10EB001092EC0092E39093ED0010925902C7
S1131A2098E09093F00082FF1DC083E00E94E30CD5
S1131A3080915B02882339F080915B02815080930E
S1131A405B02882369F080915A02882359F08091BF
S1131A505A02815080935A02811104C0289A02C00C
S1131A605D9AF1CFFF91EF91BF91AF919F918F91CB
S1131A707F916F915F914F913F912F910F900FBE86
S1131A800F901F9018951092590281E08093D7000F
S1131A9080EA8093D80082E189BD09B400FEFDCFBD
S1131AA061E070E080E090E00E945E0780E980934E
S1131AB0D8008CE08093E2001092E000559A209ABE
S1131AC008950895FF920F931F93CF93DF93EC0132
S1131AD0F62EE881F9810480F581E02D09958C01C9
S1131AE0E881F9810680F781E02D6F2DCE010995FB
S1131AF0C8019927DF91CF911F910F91FF9008950D
S1131B00FC0120812F5F208349E150E066E672E00A
S1131B1080E80C945A0B45E650E06FE772E080E8E9
S1131B200C945A0BEF92FF920F931F93CF93DF9372
S1131B301F92CDB7DEB789838B017A0141E050E073
S1131B40BE016F5F7F4F84E00E94BF0AA701B80106
S1131B5084E40E94BF0A0F90DF91CF911F910F91EF
S1131B60FF90EF900895FC0191818081813A31F4D6
S1131B7081E0913091F0933089F411C0813271F495
S1131B809B3021F4828180930A0105C09A3031F49C
S1131B9082818093090181E00895089580E0089589
S1131BA048E050E082E00C94920DCF93DF93DC0187
S1131BB0683818F0E8E7E60F25C0E62FF0E067FF85
S1131BC011C0E058F10981E090E001C0880FEA9566
S1131BD0EAF714969C911497982B14969C93149757
S1131BE0E0E010C0EA51FE4FE491EE2309F440C056
S1131BF0E7FF08C014968C911497826014968C9316
S1131C001497EF7716968C9116978E1741F11796C5
S1131C108C9117978E1719F118968C9118978E1727
S1131C20F1F019968C9119978E17C9F01A968C9128
S1131C301A978E17A1F01B968C911B978E1779F02B
S1131C4080E090E0ED01C80FD91F2E81211102C060
S1131C50EE8305C0019686309105A1F709C0BD0148
S1131C606C5F7F4FCD010E94D00D81E090E008C0F1
S1131C7081E090E013969C938E93129780E090E01D
S1131C80DF91CF910895683818F0E8E7E60F25C092
S1131C90E62FF0E067FF12C0E058F10921E030E0E0
S1131CA001C0220FEA95EAF72095DC0114963C91D5
S1131CB01497322314963C93E0E00FC0EA51FE4F90
S1131CC0E491EE2329F1E7FF08C0DC0114962C917E
S1131CD014972D7F14962C93EF7720E030E0EE23B9
S1131CE051F0DC01A20FB31F16964C9116974E13B8
S1131CF002C016961C922F5F3F4F2630310579F7AC
S1131D00BC016C5F7F4F0E94D00D81E090E008958C
S1131D1080E090E00895FC011682178210861186F7
S1131D20128613861482BC016C5F7F4F0C94D00D15
S1131D301092680210925F0210925E028BE491E0AE
S1131D4090935D0280935C020895EE0FFF1F05904F
S1131D50F491E02D0994F999FECF92BD81BDF89AD2
S1131D60992780B5089512E0CAEED2E004C0FE01BE
S1131D700E94A70E2296CC3ED107C9F7F894FFCF54
S1131D800100E1000000000000010100000000E487
S1131D90019509C401A00140023102030201000AB5
S1131DA00908048040200201022E00280028002B8C
S1131DB0002B002B00250000000000B9080009E3F7
S1131DC008F308CF08E00800000000620D9509D56B
S1091DD00D430E8B0E0012
S9030000FC
